:10000E00FB90CFFB9067FB9067FB04CFFB90CFFC80
:10001E0044CFFCACCFFD099EFB90CFFB9067FB90CD
:10002E0067FB04CFFB90CFFC44CFFCACCFFC449ECF
:10003E00FB90CFFB9067FB9067FB04CFFB90CFFC50
:10004E0044CFFCACCFFD099EFCACCFFD09CFFCAC80
:10005E00CFFC44CFFB90CFFB04CFFB909EFD09CF8E
:10006E00FD0967FD0967FCACCFFD09CFFD82CFFD11
:10007E0009CFFCAC9EFD09CFFD0967FD0967FCACFD
:10008E00CFFD09CFFD82CFFD09CFFCACCFFC44CF15
:10009E00FB90CFFB9067FB9067FB04CFFB90CFFCF0
:1000AE0044CFFCACCFFD099EFCACCFFD09CFFCAC20
:1000BE00CFFC44CFFB90CFFB04CFFB909E00009E65
:0300CE00FFFF0031
:1000D100E4F50AF50B12019C740E250BF5827400F0
:1000E100350AF583E493FFB4FF04C28C80FE8F08C8
:1000F100740F250BF5827400350AF583E493F50935
:10010100E5087008E5097004C28C8002D28C741075
:10011100250BF5827400350AF583E493FF7E001206
:1001210001B3C28CC2A57F057E001201B374032501
:0A0131000BF50BE4350AF50A809E79
:03000B000201D41B
:0901D40085088C85098AB2A53268
:1001B300EF1FAC0670011E4C600A7D027CC7DCFE9B
:0401C300DDFC80ECF3
:0101C7002215
:10019C005389F0438901758A66758CFCC28DD28CAB
:0701AC00D2A9D2AFC2B922B3
:10013B00E4F50C20B1137F14FE1201B330B1FD7F37
:10014B00147E001201B3750C0120B0147F147E00D5
:10015B001201B330B0FD7F147E001201B3750C0297
:10016B0020B2147F147E001201B330B2FD7F147ED7
:10017B00001201B3750C0320B3147F147E0012011F
:10018B00B330B3FD7F147E001201B3750C04AF0CBA
:01019B002241
:030000000201C832
:0C01C800787FE4F6D8FD75810C0200D1B0
:00000001FF
